{
  "contractName": "MeebitAvatars",
  "abi": [
    {
      "inputs": [],
      "stateMutability": "nonpayable",
      "type": "constructor"
    },
    {
      "anonymous": false,
      "inputs": [
        {
          "indexed": true,
          "internalType": "address",
          "name": "owner",
          "type": "address"
        },
        {
          "indexed": true,
          "internalType": "address",
          "name": "approved",
          "type": "address"
        },
        {
          "indexed": true,
          "internalType": "uint256",
          "name": "tokenId",
          "type": "uint256"
        }
      ],
      "name": "Approval",
      "type": "event"
    },
    {
      "anonymous": false,
      "inputs": [
        {
          "indexed": true,
          "internalType": "address",
          "name": "owner",
          "type": "address"
        },
        {
          "indexed": true,
          "internalType": "address",
          "name": "operator",
          "type": "address"
        },
        {
          "indexed": false,
          "internalType": "bool",
          "name": "approved",
          "type": "bool"
        }
      ],
      "name": "ApprovalForAll",
      "type": "event"
    },
    {
      "anonymous": false,
      "inputs": [
        {
          "indexed": true,
          "internalType": "address",
          "name": "previousOwner",
          "type": "address"
        },
        {
          "indexed": true,
          "internalType": "address",
          "name": "newOwner",
          "type": "address"
        }
      ],
      "name": "OwnershipTransferred",
      "type": "event"
    },
    {
      "anonymous": false,
      "inputs": [
        {
          "indexed": true,
          "internalType": "address",
          "name": "from",
          "type": "address"
        },
        {
          "indexed": true,
          "internalType": "address",
          "name": "to",
          "type": "address"
        },
        {
          "indexed": true,
          "internalType": "uint256",
          "name": "tokenId",
          "type": "uint256"
        }
      ],
      "name": "Transfer",
      "type": "event"
    },
    {
      "inputs": [],
      "name": "MAX_AVATARS",
      "outputs": [
        {
          "internalType": "uint256",
          "name": "",
          "type": "uint256"
        }
      ],
      "stateMutability": "view",
      "type": "function"
    },
    {
      "inputs": [
        {
          "internalType": "address",
          "name": "to",
          "type": "address"
        },
        {
          "internalType": "uint256",
          "name": "tokenId",
          "type": "uint256"
        }
      ],
      "name": "approve",
      "outputs": [],
      "stateMutability": "nonpayable",
      "type": "function"
    },
    {
      "inputs": [
        {
          "internalType": "address",
          "name": "owner",
          "type": "address"
        }
      ],
      "name": "balanceOf",
      "outputs": [
        {
          "internalType": "uint256",
          "name": "",
          "type": "uint256"
        }
      ],
      "stateMutability": "view",
      "type": "function"
    },
    {
      "inputs": [],
      "name": "baseURI",
      "outputs": [
        {
          "internalType": "string",
          "name": "",
          "type": "string"
        }
      ],
      "stateMutability": "view",
      "type": "function"
    },
    {
      "inputs": [
        {
          "internalType": "uint256",
          "name": "tokenId",
          "type": "uint256"
        }
      ],
      "name": "getApproved",
      "outputs": [
        {
          "internalType": "address",
          "name": "",
          "type": "address"
        }
      ],
      "stateMutability": "view",
      "type": "function"
    },
    {
      "inputs": [
        {
          "internalType": "address",
          "name": "owner",
          "type": "address"
        },
        {
          "internalType": "address",
          "name": "operator",
          "type": "address"
        }
      ],
      "name": "isApprovedForAll",
      "outputs": [
        {
          "internalType": "bool",
          "name": "",
          "type": "bool"
        }
      ],
      "stateMutability": "view",
      "type": "function"
    },
    {
      "inputs": [],
      "name": "name",
      "outputs": [
        {
          "internalType": "string",
          "name": "",
          "type": "string"
        }
      ],
      "stateMutability": "view",
      "type": "function"
    },
    {
      "inputs": [],
      "name": "owner",
      "outputs": [
        {
          "internalType": "address",
          "name": "",
          "type": "address"
        }
      ],
      "stateMutability": "view",
      "type": "function"
    },
    {
      "inputs": [
        {
          "internalType": "uint256",
          "name": "tokenId",
          "type": "uint256"
        }
      ],
      "name": "ownerOf",
      "outputs": [
        {
          "internalType": "address",
          "name": "",
          "type": "address"
        }
      ],
      "stateMutability": "view",
      "type": "function"
    },
    {
      "inputs": [],
      "name": "renounceOwnership",
      "outputs": [],
      "stateMutability": "nonpayable",
      "type": "function"
    },
    {
      "inputs": [
        {
          "internalType": "address",
          "name": "from",
          "type": "address"
        },
        {
          "internalType": "address",
          "name": "to",
          "type": "address"
        },
        {
          "internalType": "uint256",
          "name": "tokenId",
          "type": "uint256"
        }
      ],
      "name": "safeTransferFrom",
      "outputs": [],
      "stateMutability": "nonpayable",
      "type": "function"
    },
    {
      "inputs": [
        {
          "internalType": "address",
          "name": "from",
          "type": "address"
        },
        {
          "internalType": "address",
          "name": "to",
          "type": "address"
        },
        {
          "internalType": "uint256",
          "name": "tokenId",
          "type": "uint256"
        },
        {
          "internalType": "bytes",
          "name": "_data",
          "type": "bytes"
        }
      ],
      "name": "safeTransferFrom",
      "outputs": [],
      "stateMutability": "nonpayable",
      "type": "function"
    },
    {
      "inputs": [
        {
          "internalType": "address",
          "name": "operator",
          "type": "address"
        },
        {
          "internalType": "bool",
          "name": "approved",
          "type": "bool"
        }
      ],
      "name": "setApprovalForAll",
      "outputs": [],
      "stateMutability": "nonpayable",
      "type": "function"
    },
    {
      "inputs": [
        {
          "internalType": "bytes4",
          "name": "interfaceId",
          "type": "bytes4"
        }
      ],
      "name": "supportsInterface",
      "outputs": [
        {
          "internalType": "bool",
          "name": "",
          "type": "bool"
        }
      ],
      "stateMutability": "view",
      "type": "function"
    },
    {
      "inputs": [],
      "name": "symbol",
      "outputs": [
        {
          "internalType": "string",
          "name": "",
          "type": "string"
        }
      ],
      "stateMutability": "view",
      "type": "function"
    },
    {
      "inputs": [
        {
          "internalType": "uint256",
          "name": "index",
          "type": "uint256"
        }
      ],
      "name": "tokenByIndex",
      "outputs": [
        {
          "internalType": "uint256",
          "name": "",
          "type": "uint256"
        }
      ],
      "stateMutability": "view",
      "type": "function"
    },
    {
      "inputs": [
        {
          "internalType": "address",
          "name": "owner",
          "type": "address"
        },
        {
          "internalType": "uint256",
          "name": "index",
          "type": "uint256"
        }
      ],
      "name": "tokenOfOwnerByIndex",
      "outputs": [
        {
          "internalType": "uint256",
          "name": "",
          "type": "uint256"
        }
      ],
      "stateMutability": "view",
      "type": "function"
    },
    {
      "inputs": [
        {
          "internalType": "uint256",
          "name": "tokenId",
          "type": "uint256"
        }
      ],
      "name": "tokenURI",
      "outputs": [
        {
          "internalType": "string",
          "name": "",
          "type": "string"
        }
      ],
      "stateMutability": "view",
      "type": "function"
    },
    {
      "inputs": [],
      "name": "totalSupply",
      "outputs": [
        {
          "internalType": "uint256",
          "name": "",
          "type": "uint256"
        }
      ],
      "stateMutability": "view",
      "type": "function"
    },
    {
      "inputs": [
        {
          "internalType": "address",
          "name": "from",
          "type": "address"
        },
        {
          "internalType": "address",
          "name": "to",
          "type": "address"
        },
        {
          "internalType": "uint256",
          "name": "tokenId",
          "type": "uint256"
        }
      ],
      "name": "transferFrom",
      "outputs": [],
      "stateMutability": "nonpayable",
      "type": "function"
    },
    {
      "inputs": [
        {
          "internalType": "address",
          "name": "newOwner",
          "type": "address"
        }
      ],
      "name": "transferOwnership",
      "outputs": [],
      "stateMutability": "nonpayable",
      "type": "function"
    },
    {
      "inputs": [
        {
          "internalType": "address",
          "name": "_owner",
          "type": "address"
        }
      ],
      "name": "tokensOfOwner",
      "outputs": [
        {
          "internalType": "uint256[]",
          "name": "",
          "type": "uint256[]"
        }
      ],
      "stateMutability": "view",
      "type": "function"
    },
    {
      "inputs": [
        {
          "internalType": "uint256",
          "name": "currentSupply",
          "type": "uint256"
        }
      ],
      "name": "calculatePriceSingleToken",
      "outputs": [
        {
          "internalType": "uint256",
          "name": "",
          "type": "uint256"
        }
      ],
      "stateMutability": "pure",
      "type": "function"
    },
    {
      "inputs": [
        {
          "internalType": "uint256",
          "name": "numAvatars",
          "type": "uint256"
        }
      ],
      "name": "calculatePrice",
      "outputs": [
        {
          "internalType": "uint256",
          "name": "",
          "type": "uint256"
        }
      ],
      "stateMutability": "view",
      "type": "function"
    },
    {
      "inputs": [
        {
          "internalType": "uint256",
          "name": "numAvatars",
          "type": "uint256"
        }
      ],
      "name": "createAvatar",
      "outputs": [],
      "stateMutability": "payable",
      "type": "function"
    },
    {
      "inputs": [
        {
          "internalType": "string",
          "name": "baseURI",
          "type": "string"
        }
      ],
      "name": "setBaseURI",
      "outputs": [],
      "stateMutability": "nonpayable",
      "type": "function"
    },
    {
      "inputs": [],
      "name": "withdrawAll",
      "outputs": [],
      "stateMutability": "payable",
      "type": "function"
    }
  ],
  "bytecode": "0x60806040523480156200001157600080fd5b506040518060400160405280600d81526020017f4d656562697441766174617273000000000000000000000000000000000000008152506040518060400160405280600d81526020017f4d45454249544156415441525300000000000000000000000000000000000000815250620000bb6301ffc9a77c01000000000000000000000000000000000000000000000000000000000262000299640100000000026401000000009004565b8160069080519060200190620000d3929190620004fb565b508060079080519060200190620000ec929190620004fb565b506200012a6380ac58cd7c01000000000000000000000000000000000000000000000000000000000262000299640100000000026401000000009004565b62000167635b5e139f7c01000000000000000000000000000000000000000000000000000000000262000299640100000000026401000000009004565b620001a463780e9d637c01000000000000000000000000000000000000000000000000000000000262000299640100000000026401000000009004565b50506000620001c1620003be640100000000026401000000009004565b905080600a60006101000a81548173ffffffffffffffffffffffffffffffffffffffff021916908373ffffffffffffffffffffffffffffffffffffffff1602179055508073ffffffffffffffffffffffffffffffffffffffff16600073ffffffffffffffffffffffffffffffffffffffff167f8be0079c531659141344cd1fd0a4f28419497f9722a3daafe3b4186f6b6457e060405160405180910390a350620002936040518060800160405280605181526020016200428460519139620003c6640100000000026401000000009004565b620005a1565b63ffffffff7c010000000000000000000000000000000000000000000000000000000002817bffffffffffffffffffffffffffffffffffffffffffffffffffffffff1916141562000352576040517f08c379a000000000000000000000000000000000000000000000000000000000815260040180806020018281038252601c8152602001807f4552433136353a20696e76616c696420696e746572666163652069640000000081525060200191505060405180910390fd5b6001600080837bffffffffffffffffffffffffffffffffffffffffffffffffffffffff19167bffffffffffffffffffffffffffffffffffffffffffffffffffffffff1916815260200190815260200160002060006101000a81548160ff02191690831515021790555050565b600033905090565b620003df620003be640100000000026401000000009004565b73ffffffffffffffffffffffffffffffffffffffff166200040e620004b5640100000000026401000000009004565b73ffffffffffffffffffffffffffffffffffffffff161462000498576040517f08c379a00000000000000000000000000000000000000000000000000000000081526004018080602001828103825260208152602001807f4f776e61626c653a2063616c6c6572206973206e6f7420746865206f776e657281525060200191505060405180910390fd5b620004b281620004df640100000000026401000000009004565b50565b6000600a60009054906101000a900473ffffffffffffffffffffffffffffffffffffffff16905090565b8060099080519060200190620004f7929190620004fb565b5050565b828054600181600116156101000203166002900490600052602060002090601f016020900481019282601f106200053e57805160ff19168380011785556200056f565b828001600101855582156200056f579182015b828111156200056e57825182559160200191906001019062000551565b5b5090506200057e919062000582565b5090565b5b808211156200059d57600081600090555060010162000583565b5090565b613cd380620005b16000396000f3fe6080604052600436106101b9576000357c01000000000000000000000000000000000000000000000000000000009004806370a0823111610109578063a22cb465116100a7578063b88d4fde11610081578063b88d4fde14610a6b578063c87b56dd14610b7d578063e985e9c514610c31578063f2fde38b14610cb8576101b9565b8063a22cb46514610994578063a6bea44a146109f1578063ae10426514610a1c576101b9565b8063853828b6116100e3578063853828b61461086a5780638da5cb5b146108745780638e287012146108b557806395d89b4114610904576101b9565b806370a0823114610748578063715018a6146107ad5780638462151c146107c4576101b9565b80632f745c59116101765780634f6ccce7116101505780634f6ccce71461053c57806355f804b31461058b5780636352211e146106535780636c0360eb146106b8576101b9565b80632f745c591461042457806342842e0e146104935780634a4ed9b81461050e576101b9565b806301ffc9a7146101be57806306fdde031461022e578063081812fc146102be578063095ea7b31461032357806318160ddd1461037e57806323b872dd146103a9575b600080fd5b3480156101ca57600080fd5b50610216600480360360208110156101e157600080fd5b8101908080357bffffffffffffffffffffffffffffffffffffffffffffffffffffffff19169060200190929190505050610d09565b60405180821515815260200191505060405180910390f35b34801561023a57600080fd5b50610243610d70565b6040518080602001828103825283818151815260200191508051906020019080838360005b83811015610283578082015181840152602081019050610268565b50505050905090810190601f1680156102b05780820380516001836020036101000a031916815260200191505b509250505060405180910390f35b3480156102ca57600080fd5b506102f7600480360360208110156102e157600080fd5b8101908080359060200190929190505050610e12565b604051808273ffffffffffffffffffffffffffffffffffffffff16815260200191505060405180910390f35b34801561032f57600080fd5b5061037c6004803603604081101561034657600080fd5b81019080803573ffffffffffffffffffffffffffffffffffffffff16906020019092919080359060200190929190505050610ead565b005b34801561038a57600080fd5b50610393610ff1565b6040518082815260200191505060405180910390f35b3480156103b557600080fd5b50610422600480360360608110156103cc57600080fd5b81019080803573ffffffffffffffffffffffffffffffffffffffff169060200190929190803573ffffffffffffffffffffffffffffffffffffffff16906020019092919080359060200190929190505050611002565b005b34801561043057600080fd5b5061047d6004803603604081101561044757600080fd5b81019080803573ffffffffffffffffffffffffffffffffffffffff16906020019092919080359060200190929190505050611078565b6040518082815260200191505060405180910390f35b34801561049f57600080fd5b5061050c600480360360608110156104b657600080fd5b81019080803573ffffffffffffffffffffffffffffffffffffffff169060200190929190803573ffffffffffffffffffffffffffffffffffffffff169060200190929190803590602001909291905050506110d3565b005b61053a6004803603602081101561052457600080fd5b81019080803590602001909291905050506110f3565b005b34801561054857600080fd5b506105756004803603602081101561055f57600080fd5b81019080803590602001909291905050506112fc565b6040518082815260200191505060405180910390f35b34801561059757600080fd5b50610651600480360360208110156105ae57600080fd5b81019080803590602001906401000000008111156105cb57600080fd5b8201836020820111156105dd57600080fd5b803590602001918460018302840111640100000000831117156105ff57600080fd5b91908080601f016020809104026020016040519081016040528093929190818152602001838380828437600081840152601f19601f82011690508083019250505050505050919291929050505061131f565b005b34801561065f57600080fd5b5061068c6004803603602081101561067657600080fd5b81019080803590602001909291905050506113da565b604051808273ffffffffffffffffffffffffffffffffffffffff16815260200191505060405180910390f35b3480156106c457600080fd5b506106cd611411565b6040518080602001828103825283818151815260200191508051906020019080838360005b8381101561070d5780820151818401526020810190506106f2565b50505050905090810190601f16801561073a5780820380516001836020036101000a031916815260200191505b509250505060405180910390f35b34801561075457600080fd5b506107976004803603602081101561076b57600080fd5b81019080803573ffffffffffffffffffffffffffffffffffffffff1690602001909291905050506114b3565b6040518082815260200191505060405180910390f35b3480156107b957600080fd5b506107c2611588565b005b3480156107d057600080fd5b50610813600480360360208110156107e757600080fd5b81019080803573ffffffffffffffffffffffffffffffffffffffff1690602001909291905050506116f8565b6040518080602001828103825283818151815260200191508051906020019060200280838360005b8381101561085657808201518184015260208101905061083b565b505050509050019250505060405180910390f35b6108726117f1565b005b34801561088057600080fd5b506108896118f7565b604051808273ffffffffffffffffffffffffffffffffffffffff16815260200191505060405180910390f35b3480156108c157600080fd5b506108ee600480360360208110156108d857600080fd5b8101908080359060200190929190505050611921565b6040518082815260200191505060405180910390f35b34801561091057600080fd5b50610919611a78565b6040518080602001828103825283818151815260200191508051906020019080838360005b8381101561095957808201518184015260208101905061093e565b50505050905090810190601f1680156109865780820380516001836020036101000a031916815260200191505b509250505060405180910390f35b3480156109a057600080fd5b506109ef600480360360408110156109b757600080fd5b81019080803573ffffffffffffffffffffffffffffffffffffffff169060200190929190803515159060200190929190505050611b1a565b005b3480156109fd57600080fd5b50610a06611cd0565b6040518082815260200191505060405180910390f35b348015610a2857600080fd5b50610a5560048036036020811015610a3f57600080fd5b8101908080359060200190929190505050611cd6565b6040518082815260200191505060405180910390f35b348015610a7757600080fd5b50610b7b60048036036080811015610a8e57600080fd5b81019080803573ffffffffffffffffffffffffffffffffffffffff169060200190929190803573ffffffffffffffffffffffffffffffffffffffff1690602001909291908035906020019092919080359060200190640100000000811115610af557600080fd5b820183602082011115610b0757600080fd5b80359060200191846001830284011164010000000083111715610b2957600080fd5b91908080601f016020809104026020016040519081016040528093929190818152602001838380828437600081840152601f19601f820116905080830192505050505050509192919290505050611dd6565b005b348015610b8957600080fd5b50610bb660048036036020811015610ba057600080fd5b8101908080359060200190929190505050611e4e565b6040518080602001828103825283818151815260200191508051906020019080838360005b83811015610bf6578082015181840152602081019050610bdb565b50505050905090810190601f168015610c235780820380516001836020036101000a031916815260200191505b509250505060405180910390f35b348015610c3d57600080fd5b50610ca060048036036040811015610c5457600080fd5b81019080803573ffffffffffffffffffffffffffffffffffffffff169060200190929190803573ffffffffffffffffffffffffffffffffffffffff16906020019092919050505061211f565b60405180821515815260200191505060405180910390f35b348015610cc457600080fd5b50610d0760048036036020811015610cdb57600080fd5b81019080803573ffffffffffffffffffffffffffffffffffffffff1690602001909291905050506121b3565b005b6000806000837bffffffffffffffffffffffffffffffffffffffffffffffffffffffff19167bffffffffffffffffffffffffffffffffffffffffffffffffffffffff1916815260200190815260200160002060009054906101000a900460ff169050919050565b606060068054600181600116156101000203166002900480601f016020809104026020016040519081016040528092919081815260200182805460018160011615610100020316600290048015610e085780601f10610ddd57610100808354040283529160200191610e08565b820191906000526020600020905b815481529060010190602001808311610deb57829003601f168201915b5050505050905090565b6000610e1d826123a8565b610e72576040517f08c379a000000000000000000000000000000000000000000000000000000000815260040180806020018281038252602c815260200180613b9c602c913960400191505060405180910390fd5b6004600083815260200190815260200160002060009054906101000a900473ffffffffffffffffffffffffffffffffffffffff169050919050565b6000610eb8826113da565b90508073ffffffffffffffffffffffffffffffffffffffff168373ffffffffffffffffffffffffffffffffffffffff161415610f3f576040517f08c379a0000000000000000000000000000000000000000000000000000000008152600401808060200182810382526021815260200180613c206021913960400191505060405180910390fd5b8073ffffffffffffffffffffffffffffffffffffffff16610f5e6123c5565b73ffffffffffffffffffffffffffffffffffffffff161480610f8d5750610f8c81610f876123c5565b61211f565b5b610fe2576040517f08c379a0000000000000000000000000000000000000000000000000000000008152600401808060200182810382526038815260200180613aab6038913960400191505060405180910390fd5b610fec83836123cd565b505050565b6000610ffd6002612486565b905090565b61101361100d6123c5565b8261249b565b611068576040517f08c379a0000000000000000000000000000000000000000000000000000000008152600401808060200182810382526031815260200180613c416031913960400191505060405180910390fd5b61107383838361258f565b505050565b60006110cb82600160008673ffffffffffffffffffffffffffffffffffffffff1673ffffffffffffffffffffffffffffffffffffffff1681526020019081526020016000206127d290919063ffffffff16565b905092915050565b6110ee83838360405180602001604052806000815250611dd6565b505050565b6118346110fe610ff1565b10611171576040517f08c379a00000000000000000000000000000000000000000000000000000000081526004018080602001828103825260168152602001807f53616c652068617320616c726561647920656e6465640000000000000000000081525060200191505060405180910390fd5b600081118015611182575060328111155b6111d7576040517f08c379a000000000000000000000000000000000000000000000000000000000815260040180806020018281038252602c815260200180613c72602c913960400191505060405180910390fd5b6118346111f4826111e6610ff1565b6127ed90919063ffffffff16565b1115611268576040517f08c379a00000000000000000000000000000000000000000000000000000000081526004018080602001828103825260138152602001807f45786365656473204d41585f415641544152530000000000000000000000000081525060200191505060405180910390fd5b61127181611cd6565b3410156112c9576040517f08c379a0000000000000000000000000000000000000000000000000000000008152600401808060200182810382526023815260200180613b366023913960400191505060405180910390fd5b60005b818110156112f85760006112de610ff1565b90506112ea3382612875565b5080806001019150506112cc565b5050565b60008061131383600261289390919063ffffffff16565b50905080915050919050565b6113276123c5565b73ffffffffffffffffffffffffffffffffffffffff166113456118f7565b73ffffffffffffffffffffffffffffffffffffffff16146113ce576040517f08c379a00000000000000000000000000000000000000000000000000000000081526004018080602001828103825260208152602001807f4f776e61626c653a2063616c6c6572206973206e6f7420746865206f776e657281525060200191505060405180910390fd5b6113d7816128c1565b50565b600061140a82604051806060016040528060298152602001613b0d6029913960026128db9092919063ffffffff16565b9050919050565b606060098054600181600116156101000203166002900480601f0160208091040260200160405190810160405280929190818152602001828054600181600116156101000203166002900480156114a95780601f1061147e576101008083540402835291602001916114a9565b820191906000526020600020905b81548152906001019060200180831161148c57829003601f168201915b5050505050905090565b60008073ffffffffffffffffffffffffffffffffffffffff168273ffffffffffffffffffffffffffffffffffffffff16141561153a576040517f08c379a000000000000000000000000000000000000000000000000000000000815260040180806020018281038252602a815260200180613ae3602a913960400191505060405180910390fd5b611581600160008473ffffffffffffffffffffffffffffffffffffffff1673ffffffffffffffffffffffffffffffffffffffff1681526020019081526020016000206128fb565b9050919050565b6115906123c5565b73ffffffffffffffffffffffffffffffffffffffff166115ae6118f7565b73ffffffffffffffffffffffffffffffffffffffff1614611637576040517f08c379a00000000000000000000000000000000000000000000000000000000081526004018080602001828103825260208152602001807f4f776e61626c653a2063616c6c6572206973206e6f7420746865206f776e657281525060200191505060405180910390fd5b600073ffffffffffffffffffffffffffffffffffffffff16600a60009054906101000a900473ffffffffffffffffffffffffffffffffffffffff1673ffffffffffffffffffffffffffffffffffffffff167f8be0079c531659141344cd1fd0a4f28419497f9722a3daafe3b4186f6b6457e060405160405180910390a36000600a60006101000a81548173ffffffffffffffffffffffffffffffffffffffff021916908373ffffffffffffffffffffffffffffffffffffffff160217905550565b60606000611705836114b3565b9050600081141561176057600067ffffffffffffffff8111801561172857600080fd5b506040519080825280602002602001820160405280156117575781602001602082028036833780820191505090505b509150506117ec565b60608167ffffffffffffffff8111801561177957600080fd5b506040519080825280602002602001820160405280156117a85781602001602082028036833780820191505090505b50905060005b828110156117e5576117c08582611078565b8282815181106117cc57fe5b60200260200101818152505080806001019150506117ae565b8193505050505b919050565b6117f96123c5565b73ffffffffffffffffffffffffffffffffffffffff166118176118f7565b73ffffffffffffffffffffffffffffffffffffffff16146118a0576040517f08c379a00000000000000000000000000000000000000000000000000000000081526004018080602001828103825260208152602001807f4f776e61626c653a2063616c6c6572206973206e6f7420746865206f776e657281525060200191505060405180910390fd5b3373ffffffffffffffffffffffffffffffffffffffff166108fc3073ffffffffffffffffffffffffffffffffffffffff16319081150290604051600060405180830381858888f193505050506118f557600080fd5b565b6000600a60009054906101000a900473ffffffffffffffffffffffffffffffffffffffff16905090565b60006117d4821061193c5767214e8348c4f000009050611a73565b6117708210611955576710a741a4627800009050611a73565b61157c821061196e57670853a0d2313c00009050611a73565b6113888210611987576707a1fe16027700009050611a73565b61119482106119a0576706f05b59d3b200009050611a73565b610fa082106119b95767063eb89da4ed00009050611a73565b610dac82106119d25767058d15e1762800009050611a73565b610bb882106119eb576704db7325476300009050611a73565b6109c48210611a0457670429d069189e00009050611a73565b6107d08210611a1d576703782dace9d900009050611a73565b6105dc8210611a36576702c68af0bb1400009050611a73565b6103e88210611a4f57670214e8348c4f00009050611a73565b6101f48210611a685767016345785d8a00009050611a73565b66b1a2bc2ec5000090505b919050565b606060078054600181600116156101000203166002900480601f016020809104026020016040519081016040528092919081815260200182805460018160011615610100020316600290048015611b105780601f10611ae557610100808354040283529160200191611b10565b820191906000526020600020905b815481529060010190602001808311611af357829003601f168201915b5050505050905090565b611b226123c5565b73ffffffffffffffffffffffffffffffffffffffff168273ffffffffffffffffffffffffffffffffffffffff161415611bc3576040517f08c379a00000000000000000000000000000000000000000000000000000000081526004018080602001828103825260198152602001807f4552433732313a20617070726f766520746f2063616c6c65720000000000000081525060200191505060405180910390fd5b8060056000611bd06123c5565b73ffffffffffffffffffffffffffffffffffffffff1673ffffffffffffffffffffffffffffffffffffffff16815260200190815260200160002060008473ffffffffffffffffffffffffffffffffffffffff1673ffffffffffffffffffffffffffffffffffffffff16815260200190815260200160002060006101000a81548160ff0219169083151502179055508173ffffffffffffffffffffffffffffffffffffffff16611c7d6123c5565b73ffffffffffffffffffffffffffffffffffffffff167f17307eab39ab6107e8899845ad3d59bd9653f200f220920489ca2b5937696c318360405180821515815260200191505060405180910390a35050565b61183481565b600080611ce1610ff1565b90506000611cee82611921565b905060006101f490506000611d1e611d0f838661291090919063ffffffff16565b8361299990919063ffffffff16565b9050858110611d4557611d3a8684612a1c90919063ffffffff16565b945050505050611dd1565b611d588184612a1c90919063ffffffff16565b9250611d6d818761299990919063ffffffff16565b95506000611d9f611d9a6001611d8c85896127ed90919063ffffffff16565b6127ed90919063ffffffff16565b611921565b9050611dc6611db78883612a1c90919063ffffffff16565b856127ed90919063ffffffff16565b935083955050505050505b919050565b611de7611de16123c5565b8361249b565b611e3c576040517f08c379a0000000000000000000000000000000000000000000000000000000008152600401808060200182810382526031815260200180613c416031913960400191505060405180910390fd5b611e4884848484612aa2565b50505050565b6060611e59826123a8565b611eae576040517f08c379a000000000000000000000000000000000000000000000000000000000815260040180806020018281038252602f815260200180613bf1602f913960400191505060405180910390fd5b6060600860008481526020019081526020016000208054600181600116156101000203166002900480601f016020809104026020016040519081016040528092919081815260200182805460018160011615610100020316600290048015611f575780601f10611f2c57610100808354040283529160200191611f57565b820191906000526020600020905b815481529060010190602001808311611f3a57829003601f168201915b505050505090506060611f68611411565b9050600081511415611f7e57819250505061211a565b60008251111561204f5780826040516020018083805190602001908083835b60208310611fc05780518252602082019150602081019050602083039250611f9d565b6001836020036101000a03801982511681845116808217855250505050505090500182805190602001908083835b602083106120115780518252602082019150602081019050602083039250611fee565b6001836020036101000a038019825116818451168082178552505050505050905001925050506040516020818303038152906040529250505061211a565b8061205985612b14565b6040516020018083805190602001908083835b6020831061208f578051825260208201915060208101905060208303925061206c565b6001836020036101000a03801982511681845116808217855250505050505090500182805190602001908083835b602083106120e057805182526020820191506020810190506020830392506120bd565b6001836020036101000a03801982511681845116808217855250505050505090500192505050604051602081830303815290604052925050505b919050565b6000600560008473ffffffffffffffffffffffffffffffffffffffff1673ffffffffffffffffffffffffffffffffffffffff16815260200190815260200160002060008373ffffffffffffffffffffffffffffffffffffffff1673ffffffffffffffffffffffffffffffffffffffff16815260200190815260200160002060009054906101000a900460ff16905092915050565b6121bb6123c5565b73ffffffffffffffffffffffffffffffffffffffff166121d96118f7565b73ffffffffffffffffffffffffffffffffffffffff1614612262576040517f08c379a00000000000000000000000000000000000000000000000000000000081526004018080602001828103825260208152602001807f4f776e61626c653a2063616c6c6572206973206e6f7420746865206f776e657281525060200191505060405180910390fd5b600073ffffffffffffffffffffffffffffffffffffffff168173ffffffffffffffffffffffffffffffffffffffff1614156122e8576040517f08c379a0000000000000000000000000000000000000000000000000000000008152600401808060200182810382526026815260200180613a0f6026913960400191505060405180910390fd5b8073ffffffffffffffffffffffffffffffffffffffff16600a60009054906101000a900473ffffffffffffffffffffffffffffffffffffffff1673ffffffffffffffffffffffffffffffffffffffff167f8be0079c531659141344cd1fd0a4f28419497f9722a3daafe3b4186f6b6457e060405160405180910390a380600a60006101000a81548173ffffffffffffffffffffffffffffffffffffffff021916908373ffffffffffffffffffffffffffffffffffffffff16021790555050565b60006123be826002612c7a90919063ffffffff16565b9050919050565b600033905090565b816004600083815260200190815260200160002060006101000a81548173ffffffffffffffffffffffffffffffffffffffff021916908373ffffffffffffffffffffffffffffffffffffffff160217905550808273ffffffffffffffffffffffffffffffffffffffff16612440836113da565b73ffffffffffffffffffffffffffffffffffffffff167f8c5be1e5ebec7d5bd14f71427d1e84f3dd0314c0f7b2291e5b200ac8c7c3b92560405160405180910390a45050565b600061249482600001612c94565b9050919050565b60006124a6826123a8565b6124fb576040517f08c379a000000000000000000000000000000000000000000000000000000000815260040180806020018281038252602c815260200180613a7f602c913960400191505060405180910390fd5b6000612506836113da565b90508073ffffffffffffffffffffffffffffffffffffffff168473ffffffffffffffffffffffffffffffffffffffff16148061257557508373ffffffffffffffffffffffffffffffffffffffff1661255d84610e12565b73ffffffffffffffffffffffffffffffffffffffff16145b806125865750612585818561211f565b5b91505092915050565b8273ffffffffffffffffffffffffffffffffffffffff166125af826113da565b73ffffffffffffffffffffffffffffffffffffffff161461261b576040517f08c379a0000000000000000000000000000000000000000000000000000000008152600401808060200182810382526029815260200180613bc86029913960400191505060405180910390fd5b600073ffffffffffffffffffffffffffffffffffffffff168273ffffffffffffffffffffffffffffffffffffffff1614156126a1576040517f08c379a0000000000000000000000000000000000000000000000000000000008152600401808060200182810382526024815260200180613a356024913960400191505060405180910390fd5b6126ac838383612ca5565b6126b76000826123cd565b61270881600160008673ffffffffffffffffffffffffffffffffffffffff1673ffffffffffffffffffffffffffffffffffffffff168152602001908152602001600020612caa90919063ffffffff16565b5061275a81600160008573ffffffffffffffffffffffffffffffffffffffff1673ffffffffffffffffffffffffffffffffffffffff168152602001908152602001600020612cc490919063ffffffff16565b5061277181836002612cde9092919063ffffffff16565b50808273ffffffffffffffffffffffffffffffffffffffff168473ffffffffffffffffffffffffffffffffffffffff167fddf252ad1be2c89b69c2b068fc378daa952ba7f163c4a11628f55a4df523b3ef60405160405180910390a4505050565b60006127e18360000183612d13565b60019004905092915050565b60008082840190508381101561286b576040517f08c379a000000000000000000000000000000000000000000000000000000000815260040180806020018281038252601b8152602001807f536166654d6174683a206164646974696f6e206f766572666c6f77000000000081525060200191505060405180910390fd5b8091505092915050565b61288f828260405180602001604052806000815250612d96565b5050565b6000806000806128a68660000186612e07565b91509150816001900481600190049350935050509250929050565b80600990805190602001906128d792919061391d565b5050565b60006128ee846000018460010284612ea0565b6001900490509392505050565b600061290982600001612f96565b9050919050565b6000808211612987576040517f08c379a00000000000000000000000000000000000000000000000000000000081526004018080602001828103825260188152602001807f536166654d6174683a206d6f64756c6f206279207a65726f000000000000000081525060200191505060405180910390fd5b81838161299057fe5b06905092915050565b600082821115612a11576040517f08c379a000000000000000000000000000000000000000000000000000000000815260040180806020018281038252601e8152602001807f536166654d6174683a207375627472616374696f6e206f766572666c6f77000081525060200191505060405180910390fd5b818303905092915050565b600080831415612a2f5760009050612a9c565b6000828402905082848281612a4057fe5b0414612a97576040517f08c379a0000000000000000000000000000000000000000000000000000000008152600401808060200182810382526021815260200180613b7b6021913960400191505060405180910390fd5b809150505b92915050565b612aad84848461258f565b612ab984848484612fa7565b612b0e576040517f08c379a00000000000000000000000000000000000000000000000000000000081526004018080602001828103825260328152602001806139dd6032913960400191505060405180910390fd5b50505050565b60606000821415612b5c576040518060400160405280600181526020017f30000000000000000000000000000000000000000000000000000000000000008152509050612c75565b600082905060005b60008214612b86578080600101915050600a8281612b7e57fe5b049150612b64565b60608167ffffffffffffffff81118015612b9f57600080fd5b506040519080825280601f01601f191660200182016040528015612bd25781602001600182028036833780820191505090505b50905060006001830390508593505b60008414612c6d57600a8481612bf357fe5b066030017f01000000000000000000000000000000000000000000000000000000000000000282828060019003935081518110612c2c57fe5b60200101907effffffffffffffffffffffffffffffffffffffffffffffffffffffffffffff1916908160001a905350600a8481612c6557fe5b049350612be1565b819450505050505b919050565b6000612c8c83600001836001026131f8565b905092915050565b600081600001805490509050919050565b505050565b6000612cbc836000018360010261321b565b905092915050565b6000612cd68360000183600102613303565b905092915050565b6000612d0a84600001846001028473ffffffffffffffffffffffffffffffffffffffff16600102613373565b90509392505050565b600081836000018054905011612d74576040517f08c379a00000000000000000000000000000000000000000000000000000000081526004018080602001828103825260228152602001806139bb6022913960400191505060405180910390fd5b826000018281548110612d8357fe5b9060005260206000200154905092915050565b612da0838361344f565b612dad6000848484612fa7565b612e02576040517f08c379a00000000000000000000000000000000000000000000000000000000081526004018080602001828103825260328152602001806139dd6032913960400191505060405180910390fd5b505050565b60008082846000018054905011612e69576040517f08c379a0000000000000000000000000000000000000000000000000000000008152600401808060200182810382526022815260200180613b596022913960400191505060405180910390fd5b6000846000018481548110612e7a57fe5b906000526020600020906002020190508060000154816001015492509250509250929050565b60008084600101600085815260200190815260200160002054905060008114158390612f67576040517f08c379a00000000000000000000000000000000000000000000000000000000081526004018080602001828103825283818151815260200191508051906020019080838360005b83811015612f2c578082015181840152602081019050612f11565b50505050905090810190601f168015612f595780820380516001836020036101000a031916815260200191505b509250505060405180910390fd5b50846000016001820381548110612f7a57fe5b9060005260206000209060020201600101549150509392505050565b600081600001805490509050919050565b6000612fc88473ffffffffffffffffffffffffffffffffffffffff16613643565b612fd557600190506131f0565b606061315b63150b7a027c0100000000000000000000000000000000000000000000000000000000026130066123c5565b888787604051602401808573ffffffffffffffffffffffffffffffffffffffff1681526020018473ffffffffffffffffffffffffffffffffffffffff16815260200183815260200180602001828103825283818151815260200191508051906020019080838360005b8381101561308a57808201518184015260208101905061306f565b50505050905090810190601f1680156130b75780820380516001836020036101000a031916815260200191505b5095505050505050604051602081830303815290604052907bffffffffffffffffffffffffffffffffffffffffffffffffffffffff19166020820180517bffffffffffffffffffffffffffffffffffffffffffffffffffffffff83818316178352505050506040518060600160405280603281526020016139dd603291398773ffffffffffffffffffffffffffffffffffffffff166136569092919063ffffffff16565b9050600081806020019051602081101561317457600080fd5b8101908080519060200190929190505050905063150b7a027c0100000000000000000000000000000000000000000000000000000000027bffffffffffffffffffffffffffffffffffffffffffffffffffffffff1916817bffffffffffffffffffffffffffffffffffffffffffffffffffffffff191614925050505b949350505050565b600080836001016000848152602001908152602001600020541415905092915050565b600080836001016000848152602001908152602001600020549050600081146132f7576000600182039050600060018660000180549050039050600086600001828154811061326657fe5b906000526020600020015490508087600001848154811061328357fe5b90600052602060002001819055506001830187600101600083815260200190815260200160002081905550866000018054806132bb57fe5b600190038181906000526020600020016000905590558660010160008781526020019081526020016000206000905560019450505050506132fd565b60009150505b92915050565b600061330f838361366e565b61336857826000018290806001815401808255809150506001900390600052602060002001600090919091909150558260000180549050836001016000848152602001908152602001600020819055506001905061336d565b600090505b92915050565b600080846001016000858152602001908152602001600020549050600081141561341a57846000016040518060400160405280868152602001858152509080600181540180825580915050600190039060005260206000209060020201600090919091909150600082015181600001556020820151816001015550508460000180549050856001016000868152602001908152602001600020819055506001915050613448565b8285600001600183038154811061342d57fe5b90600052602060002090600202016001018190555060009150505b9392505050565b600073ffffffffffffffffffffffffffffffffffffffff168273ffffffffffffffffffffffffffffffffffffffff1614156134f2576040517f08c379a00000000000000000000000000000000000000000000000000000000081526004018080602001828103825260208152602001807f4552433732313a206d696e7420746f20746865207a65726f206164647265737381525060200191505060405180910390fd5b6134fb816123a8565b1561356e576040517f08c379a000000000000000000000000000000000000000000000000000000000815260040180806020018281038252601c8152602001807f4552433732313a20746f6b656e20616c7265616479206d696e7465640000000081525060200191505060405180910390fd5b61357a60008383612ca5565b6135cb81600160008573ffffffffffffffffffffffffffffffffffffffff1673ffffffffffffffffffffffffffffffffffffffff168152602001908152602001600020612cc490919063ffffffff16565b506135e281836002612cde9092919063ffffffff16565b50808273ffffffffffffffffffffffffffffffffffffffff16600073ffffffffffffffffffffffffffffffffffffffff167fddf252ad1be2c89b69c2b068fc378daa952ba7f163c4a11628f55a4df523b3ef60405160405180910390a45050565b600080823b905060008111915050919050565b60606136658484600085613691565b90509392505050565b600080836001016000848152602001908152602001600020541415905092915050565b6060823073ffffffffffffffffffffffffffffffffffffffff16311015613703576040517f08c379a0000000000000000000000000000000000000000000000000000000008152600401808060200182810382526026815260200180613a596026913960400191505060405180910390fd5b61370c85613643565b61377e576040517f08c379a000000000000000000000000000000000000000000000000000000000815260040180806020018281038252601d8152602001807f416464726573733a2063616c6c20746f206e6f6e2d636f6e747261637400000081525060200191505060405180910390fd5b600060608673ffffffffffffffffffffffffffffffffffffffff1685876040518082805190602001908083835b602083106137ce57805182526020820191506020810190506020830392506137ab565b6001836020036101000a03801982511681845116808217855250505050505090500191505060006040518083038185875af1925050503d8060008114613830576040519150601f19603f3d011682016040523d82523d6000602084013e613835565b606091505b5091509150613845828286613851565b92505050949350505050565b6060831561386157829050613916565b6000835111156138745782518084602001fd5b816040517f08c379a00000000000000000000000000000000000000000000000000000000081526004018080602001828103825283818151815260200191508051906020019080838360005b838110156138db5780820151818401526020810190506138c0565b50505050905090810190601f1680156139085780820380516001836020036101000a031916815260200191505b509250505060405180910390fd5b9392505050565b828054600181600116156101000203166002900490600052602060002090601f016020900481019282601f1061395e57805160ff191683800117855561398c565b8280016001018555821561398c579182015b8281111561398b578251825591602001919060010190613970565b5b509050613999919061399d565b5090565b5b808211156139b657600081600090555060010161399e565b509056fe456e756d657261626c655365743a20696e646578206f7574206f6620626f756e64734552433732313a207472616e7366657220746f206e6f6e20455243373231526563656976657220696d706c656d656e7465724f776e61626c653a206e6577206f776e657220697320746865207a65726f20616464726573734552433732313a207472616e7366657220746f20746865207a65726f2061646472657373416464726573733a20696e73756666696369656e742062616c616e636520666f722063616c6c4552433732313a206f70657261746f7220717565727920666f72206e6f6e6578697374656e7420746f6b656e4552433732313a20617070726f76652063616c6c6572206973206e6f74206f776e6572206e6f7220617070726f76656420666f7220616c6c4552433732313a2062616c616e636520717565727920666f7220746865207a65726f20616464726573734552433732313a206f776e657220717565727920666f72206e6f6e6578697374656e7420746f6b656e45746865722076616c75652073656e742069732062656c6f7720746865207072696365456e756d657261626c654d61703a20696e646578206f7574206f6620626f756e6473536166654d6174683a206d756c7469706c69636174696f6e206f766572666c6f774552433732313a20617070726f76656420717565727920666f72206e6f6e6578697374656e7420746f6b656e4552433732313a207472616e73666572206f6620746f6b656e2074686174206973206e6f74206f776e4552433732314d657461646174613a2055524920717565727920666f72206e6f6e6578697374656e7420746f6b656e4552433732313a20617070726f76616c20746f2063757272656e74206f776e65724552433732313a207472616e736665722063616c6c6572206973206e6f74206f776e6572206e6f7220617070726f766564596f752063616e20637265617465206d696e696d756d20312c206d6178696d756d2035302041766174617273a2646970667358221220694567ad5db929af57571996304e444e8c3602d2882c2cc2ca2072a8454bf07b64736f6c6343000700003368747470733a2f2f676174657761792e70696e6174612e636c6f75642f697066732f516d4e6369536a4b475867356a756a6641376b6e7059374235326a58453361794d6b77317466566b4133615772572f",
  "immutableReferences": {},
  "source": "// contracts/MeebitAvatars.sol\n// SPDX-License-Identifier: MIT\n\npragma solidity ^0.7.0;\n\nimport \"@openzeppelin/contracts/token/ERC721/ERC721.sol\";\nimport \"@openzeppelin/contracts/access/Ownable.sol\";\n\n// Contract inspired by Chubbies (https://chubbies.io/)\ncontract MeebitAvatars is ERC721, Ownable {\n    using SafeMath for uint256;\n    uint256 public constant MAX_AVATARS = 6196;\n\n    constructor() ERC721(\"MeebitAvatars\", \"MEEBITAVATARS\") {\n        setBaseURI(\n            \"https://gateway.pinata.cloud/ipfs/QmNciSjKGXg5jujfA7knpY7B52jXE3ayMkw1tfVkA3aWrW/\"\n        );\n    }\n\n    function tokensOfOwner(address _owner)\n        external\n        view\n        returns (uint256[] memory)\n    {\n        uint256 tokenCount = balanceOf(_owner);\n        if (tokenCount == 0) {\n            // Return an empty array\n            return new uint256[](0);\n        } else {\n            uint256[] memory result = new uint256[](tokenCount);\n            uint256 index;\n            for (index = 0; index < tokenCount; index++) {\n                result[index] = tokenOfOwnerByIndex(_owner, index);\n            }\n            return result;\n        }\n    }\n\n    function calculatePriceSingleToken(uint256 currentSupply)\n        public\n        pure\n        returns (uint256)\n    {\n        if (currentSupply >= 6100) {\n            return 2400000000000000000; // 6100-6196:  2.4 ETH\n        } else if (currentSupply >= 6000) {\n            return 1200000000000000000; // 6000-6099:  1.2 ETH\n        } else if (currentSupply >= 5500) {\n            return 600000000000000000; // 5500-5999:  0.6 ETH\n        } else if (currentSupply >= 5000) {\n            return 550000000000000000; // 5000-5499:  0.55 ETH\n        } else if (currentSupply >= 4500) {\n            return 500000000000000000; // 4500-4999:  0.5 ETH\n        } else if (currentSupply >= 4000) {\n            return 450000000000000000; // 4000-4499:  0.45 ETH\n        } else if (currentSupply >= 3500) {\n            return 400000000000000000; // 3500-3999:  0.4 ETH\n        } else if (currentSupply >= 3000) {\n            return 350000000000000000; // 3000-3499:  0.35 ETH\n        } else if (currentSupply >= 2500) {\n            return 300000000000000000; // 2500-2999:  0.3 ETH\n        } else if (currentSupply >= 2000) {\n            return 250000000000000000; // 2000-2499:  0.25 ETH\n        } else if (currentSupply >= 1500) {\n            return 200000000000000000; // 1500-1999:  0.2 ETH\n        } else if (currentSupply >= 1000) {\n            return 150000000000000000; // 1000-1499:  0.15 ETH\n        } else if (currentSupply >= 500) {\n            return 100000000000000000; // 500-999:    0.1 ETH\n        } else {\n            return 50000000000000000; // 0-499:       0.05 ETH\n        }\n    }\n\n    function calculatePrice(uint256 numAvatars) public view returns (uint256) {\n        uint256 currentSupply = totalSupply();\n        uint256 totalPrice = calculatePriceSingleToken(currentSupply);\n        uint256 modLimit = 500;\n        uint256 remainingAvatarsUnderThisPrice =\n            modLimit.sub(currentSupply.mod(modLimit));\n        if (remainingAvatarsUnderThisPrice >= numAvatars) {\n            return totalPrice.mul(numAvatars);\n        } else {\n            totalPrice = totalPrice.mul(remainingAvatarsUnderThisPrice);\n            numAvatars = numAvatars.sub(remainingAvatarsUnderThisPrice);\n            uint256 currentPrice =\n                calculatePriceSingleToken(\n                    currentSupply.add(remainingAvatarsUnderThisPrice).add(1)\n                );\n            totalPrice = totalPrice.add(currentPrice.mul(numAvatars));\n            return totalPrice;\n        }\n    }\n\n    function createAvatar(uint256 numAvatars) public payable {\n        require(totalSupply() < MAX_AVATARS, \"Sale has already ended\");\n        require(\n            numAvatars > 0 && numAvatars <= 50,\n            \"You can create minimum 1, maximum 50 Avatars\"\n        );\n        require(\n            totalSupply().add(numAvatars) <= MAX_AVATARS,\n            \"Exceeds MAX_AVATARS\"\n        );\n        require(\n            msg.value >= calculatePrice(numAvatars),\n            \"Ether value sent is below the price\"\n        );\n\n        for (uint256 i = 0; i < numAvatars; i++) {\n            uint256 mintIndex = totalSupply();\n            _safeMint(msg.sender, mintIndex);\n        }\n    }\n\n    // Owner Mode\n    function setBaseURI(string memory baseURI) public onlyOwner {\n        _setBaseURI(baseURI);\n    }\n\n    function withdrawAll() public payable onlyOwner {\n        require(payable(msg.sender).send(address(this).balance));\n    }\n}\n",
  "sourcePath": "/home/shankarb/Desktop/FoggleMan/SmartContracts/MeebitAvatars/contracts/MeebitAvatars.sol",
  "compiler": {
    "name": "solc",
    "version": "0.7.0+commit.9e61f92b.Emscripten.clang"
  },
  "schemaVersion": "3.4.1",
  "updatedAt": "2021-05-22T10:41:16.491Z",
  "devdoc": {
    "kind": "dev",
    "methods": {
      "approve(address,uint256)": {
        "details": "See {IERC721-approve}."
      },
      "balanceOf(address)": {
        "details": "See {IERC721-balanceOf}."
      },
      "baseURI()": {
        "details": "Returns the base URI set via {_setBaseURI}. This will be automatically added as a prefix in {tokenURI} to each token's URI, or to the token ID if no specific URI is set for that token ID."
      },
      "getApproved(uint256)": {
        "details": "See {IERC721-getApproved}."
      },
      "isApprovedForAll(address,address)": {
        "details": "See {IERC721-isApprovedForAll}."
      },
      "name()": {
        "details": "See {IERC721Metadata-name}."
      },
      "owner()": {
        "details": "Returns the address of the current owner."
      },
      "ownerOf(uint256)": {
        "details": "See {IERC721-ownerOf}."
      },
      "renounceOwnership()": {
        "details": "Leaves the contract without owner. It will not be possible to call `onlyOwner` functions anymore. Can only be called by the current owner. NOTE: Renouncing ownership will leave the contract without an owner, thereby removing any functionality that is only available to the owner."
      },
      "safeTransferFrom(address,address,uint256)": {
        "details": "See {IERC721-safeTransferFrom}."
      },
      "safeTransferFrom(address,address,uint256,bytes)": {
        "details": "See {IERC721-safeTransferFrom}."
      },
      "setApprovalForAll(address,bool)": {
        "details": "See {IERC721-setApprovalForAll}."
      },
      "supportsInterface(bytes4)": {
        "details": "See {IERC165-supportsInterface}. Time complexity O(1), guaranteed to always use less than 30 000 gas."
      },
      "symbol()": {
        "details": "See {IERC721Metadata-symbol}."
      },
      "tokenByIndex(uint256)": {
        "details": "See {IERC721Enumerable-tokenByIndex}."
      },
      "tokenOfOwnerByIndex(address,uint256)": {
        "details": "See {IERC721Enumerable-tokenOfOwnerByIndex}."
      },
      "tokenURI(uint256)": {
        "details": "See {IERC721Metadata-tokenURI}."
      },
      "totalSupply()": {
        "details": "See {IERC721Enumerable-totalSupply}."
      },
      "transferFrom(address,address,uint256)": {
        "details": "See {IERC721-transferFrom}."
      },
      "transferOwnership(address)": {
        "details": "Transfers ownership of the contract to a new account (`newOwner`). Can only be called by the current owner."
      }
    },
    "version": 1
  },
  "userdoc": {
    "kind": "user",
    "methods": {},
    "version": 1
  }
}